:040000000128FE2FA6
:100F86008731DB27873140011A14C82F01284F010A
:100F960096019701980199019A019B010800543026
:100FA60051018D008F01910193019001920108007A
:100FB6008731CA2787318731E52787318731D2279D
:100FC60087310800400198019A01373092003E307F
:100FD60094003F307E01CE003730B800B901CF0112
:100FE600BA01D0013730BB003F30D1003F30BC00E2
:0A0FF6003F30D20008004001C32F75
:020000040001F9
:08000000FF3FFF3FFF3FFF3F00
:0A000E00DC3F3F3F9F3FFF3FFF3FF5
:00000001FF
